:1010F600E4F5A07580FF43A08053A01FF58043A0B0
:10110600A053A01FF58043A0C053A01FF58043A0A5
:10111600E053A01F121394121370D2AF120532E4DB
:03112600FEFF22A7
:1012C100130F0B07120E0A06110D0905100C080465
:0E12D100110D0905100C08040D09050C080488
:060B2D000142000143003B
:1010160043B00FE5B0F4540F602C20B305754204BD
:10102600801620B205754205800E20B10575420670
:10103600800620B003754207C3E54394FA74809492
:0C104600805008054322E4F542F54322E7
:100C52007FFF7EFF75B00FE4F5C0E5B0F4540F607E
:100C62006C20B004E4FF801320B1047F01800C20CB
:100C7200B2047F02800520B3027F0375B0F075C015
:100C8200FF20B404E4FE801320B5047E01800C2012
:100C9200C2047E02800520C4027E03EFF46020EECF
:100CA200F4601CEF25E025E024C1F582E43412F55E
:100CB20083E5822EF582E43583F583E493F542C31E
:100CC200E54394FA748094805008054322E4F54287
:020CD200F543E8
:010CD40022FD
:100E410043B00FE5B0F4540F602C20B30575420494
:100E5100801620B205754205800E20B10575420647
:100E6100800620B003754207C3E54394FA74809469
:100E710080503B054322E542602FAF437E00D3EF14
:100E810094FA748094805021C3EF946474809480A8
:100E910050047543FF22C3EF94C8EE6480948050E0
:0F0EA100047543FE227543FD22E4F542F543221A
:100A77007FFF7EFF75B00FE4F5C0E5B0F4540F605B
:100A87006C20B004E4FF801320B1047F01800C20A8
:100A9700B2047F02800520B3027F0375B0F075C0F2
:100AA700FF20B404E4FE801320B5047E01800C20EF
:100AB700C2047E02800520C4027E03EFF46020EEAC
:100AC700F4601CEF25E025E024C1F582E43412F53B
:100AD70083E5822EF582E43583F583E493F542C3FB
:100AE700E54394FA74809480503B054322E54260C5
:100AF7002FAF437E00D3EF94FA748094805021C3C4
:100B0700EF94647480948050047543FF22C3EF947C
:100B1700C8EE6480948050047543FE227543FD221D
:050B2700E4F542F54376
:010B2C0022A6
:100D52007FFF7EFF53B0CF53C0EB43B00CE5B0F43E
:100D6200540C606120B204E4FF800520B3027F01CD
:100D720043B03043C01453B0F320B404E4FE8013F4
:100D820020B5047E01800C20C2047E02800520C4AE
:100D9200027E03EFF46020EEF4601CEF25E025E014
:100DA20024D1F582E43412F583E5822EF582E4350E
:100DB20083F583E493F542C3E54394FA7480948007
:0A0DC2005008054322E4F542F54312
:010DCC002204
:100DCD007FFF7EFF53B0DF53C0EB43B00CE5B0F4B3
:100DDD00540C605A20B204E4FF800520B3027F0159
:100DED0043B02043C01453B0F320B504E4FE800C8F
:100DFD0020C2047E01800520C4027E02EFF4602033
:100E0D00EEF4601CEF75F003A424D9F582E43412DE
:100E1D00F583E5822EF582E43583F583E493F5427F
:100E2D00C3E54394FA748094805008054322E4F599
:030E3D0042F54338
:010E4000228F
:0613D700804020102040C0
:100EB0007F017E00E4FDFCC3E51894E8E517940388
:100EC0004012E4F517F5180D0CEC9406748094802C
:100ED0004002E4FCC3E51B940A7480948040D8E48B
:100EE000F51BEF250AF50AFB7A00C394647480941D
:100EF00080400474FFFEFFEB4A7003FE7F01EC901C
:0E0F000013D793FBED540FFAEB4AF51680A9B8
:1008E500754C7FC3E51B940A7480948040F5E4F54C
:1008F5001B120A77E5426404703EE543249C6017A9
:10090500249C601824CB602314601B14601324FD01
:10091500701E431602801C43160480174316088078
:1009250012431610800D431620800843164080039D
:10093500531681431601801F751600E54264077042
:1009450008E54364027002054CE54264067008E55B
:100955004364027002154CE54275F00A84AB12AA95
:1009650013A914120249E54275F00A84AB12AA13C1
:10097500A914900001E5F012025BE54375F064846B
:1009850090000312025BE54375F00A8475F00A8452
:10099500900004E5F012025BE54375F00A849000CF
:1009A50005E5F012025BE54C75F00A84900007E559
:0709B500F012025B0208E8EA
:10032800751D02851D1EE4F51FE51D75F008A42442
:1003380000F9740035F0751201F5138914120F5580
:1003480075341412132EC3E51B940A7480948040EC
:10035800F5E4F51B120DCDC3E51C9432748094802E
:100368004022E4F51CE51F24FE600F14601414609D
:10037800112403700A1210C28008120F0E8003E4C1
:10038800F51F051FAF427E00EF64047019D3E543E3
:10039800940274809480400EE51D64016011851DEF
:1003A8001E751D018009E51D64017003851E1DEF82
:1003B80064054E701CE54364647016E51D600AF51B
:1003C8001EE4F51D1213838042851E1D12132E8014
:1003D8003AE54264087018E54364027012151DC3BB
:1003E800E51D9402748094805021751D05801CE5DC
:1003F8004264097016E54364027010051DD3E51DBB
:100408009405748094804003751D02E51D75F008FD
:10041800A42400F9740035F0751201F5138914E568
:100428002175F00A84900010F0E52175F00A84A384
:10043800E5F0F0E52275F00A84900013F0E52275E6
:10044800F00A84A3E5F0F0E52375F00A849000161D
:10045800F0E52375F00A84A3E5F0F0A37402F0E454
:10046800A3F0E52675F00A84A3F0E52675F00A8462
:10047800A3E5F0F0E52475F00A84A3F0E52475F00F
:100488000A84A3E5F0F0E52575F00A84A3F0E525D4
:1004980075F00A84A3E5F0F0AE10AF117C277D104B
:1004A80012028F7C007D0A12028F900023EDF0AEBD
:1004B80010AF117C037DE812028F7C007D0A1202C6
:1004C8008FA3EDF0AE10AF117C007D6412028F7C1B
:1004D800007D0A12028FA3EDF0AE10AF117C007DF3
:1004E8000A12028F7C007D0A12028FA3EDF0AE1073
:1004F800AF117C007D0A12028FA3EDF0E531C454E0
:100508000FA3F0E531540FA3F0E533C4540F900066
:100518002BF0E533540FA3F0E534C4540F90002EAC
:0A052800F0E534540FA3F002034E77
:1009BC0074FFF544F545C3E50D9464748094804050
:1009CC00F5E4F50D120CD58E448F45C3E545941E08
:1009DC00E5449400500543151080035315EFAE44C5
:1009EC00AF457C277D1012028FAB12AA13A914EF0E
:1009FC00120249AE44AF457C037DE812028F7C00A5
:100A0C007D0A12028FAB12AA13A914900001ED12E9
:100A1C00025BAE44AF457C007D6412028F7C007D8E
:100A2C000A12028FAB12AA13A914900002ED120243
:100A3C005BAE44AF457C007D0A12028F7C007D0AC0
:100A4C0012028FAB12AA13A914900003ED12025BD1
:100A5C00AE44AF457C007D0A12028FAB12AA13A9DB
:0B0A6C0014900004ED12025B0209C2AE
:1007D2007B007A007946753E027F1412108CC3E5C5
:1007E2001B940A7480948040F5E4F51B120DCDAF82
:1007F200427E00EF64057010E5436402700A05470B
:10080200E547703905468035EF64044E7010E543C4
:100812006402700AE547154770231546801FE542BA
:1008220064097019E54364027013FB7A0079467516
:1008320039027F141211B3751601E4F50DE5166045
:100842000EC3E50D9464748094804003E4F516AE03
:1008520046AF477C277D1012028F7C007D0A120270
:100862008FAB12AA13A914ED120249AE46AF477C10
:10087200037DE812028F7C007D0A12028FAB12AA5E
:1008820013A914900001ED12025BAE46AF477C0043
:100892007D6412028F7C007D0A12028FAB12AA13B2
:1008A200A914900002ED12025BAE46AF477C007DB8
:1008B2000A12028F7C007D0A12028FAB12AA13A9C0
:1008C20014900003ED12025BAE46AF477C007D0A36
:1008D20012028FAB12AA13A914900004ED12025B4C
:0308E2000207E02A
:10053200C3E50D94647480948040F5E4F50D120FC8
:1005420097C3E54864809480400302060CAB12AA6C
:1005520013A9147411120249C3E49549FFE49548A2
:10056200FE7C277D101202E47C007D0A1202E4ABBD
:1005720012AA13A914900001ED12025BC3E495497B
:10058200FFE49548FE7C037DE81202E47C007D0ACC
:100592001202E4AB12AA13A914900002ED12025B3C
:1005A200C3E49549FFE49548FE7C007D641202E4B1
:1005B2007C007D0A1202E4ED2420AB12AA13A914D6
:1005C20090000312025BC3E49549FFE49548FE7C68
:1005D200007D0A1202E47C007D0A1202E4AB12AA38
:1005E20013A914900004ED12025BC3E49549FFE4E1
:1005F2009548FE7C007D0A1202E4AB12AA13A914EC
:10060200900005ED12025B020532AB12AA13A91487
:100612007410120249AE48AF497C27FD1202E47CF5
:10062200007D0A1202E4AB12AA13A914900001ED94
:1006320012025BAE48AF497C037DE81202E47C0003
:100642007D0A1202E4AB12AA13A914900002ED1261
:10065200025BAE48AF497C007D641202E47C007DFF
:100662000A1202E4ED2420AB12AA13A9149000038B
:1006720012025BAE48AF497C007D0A1202E47C00A4
:100682007D0A1202E4AB12AA13A914900004ED121F
:10069200025BAE48AF497C007D0A1202E4AB12AAAB
:0D06A20013A914900005ED12025B02053251
:070B3300014100023F000038
:10122E00D29012124EC29012124ED29012124EC282
:10123E009012124ED29012124EC29012124ED290A4
:06124E0000007F24DFFE1A
:011254002277
:0C13B300C2DEE4F5D875D90175DA11220C
:03003B0002134766
:10134700C2DE30D802C2D830D902C2D930DA02C2DE
:05135700DA75410032CF
:100CD500E5417074E540453F604A30DF0AC2DF7484
:100CE500FFF53FF5408043431680AFFA753F008F0F
:100CF50040E540754000F53FAFEAEF424074E4251A
:100D050040F5407472353FF53FFCAD40E4120149B2
:100D15007B967A43798B783C12003E1201828E3F96
:100D25008F408006753F00754001C2AF12122EC27A
:100D35009012124E12122EC290D2AF75E91C75F99F
:0C0D45008DC2DFD2DE754101AE3FAF4031
:010D5100227F
:101129003F065B4F666D7D077F6F777C395E79710E
:101139000040761E7038375C733E783D6750376ED5
:10114900BF86DBCFE6EDFD87FFEF460102040810FD
:03115900204080B3
:100B3A00011A006030000010101010101010100C74
:100B4A0010101010100206101011101011101010B1
:100B5A00101010101010100F10101010101010108C
:100B6A00101010101010100312010000010FFF01E5
:100B7A001600010900010A64011964011500011B2C
:100B8A000A011C32010D64010EC8021703E8020BA8
:090B9A000064021000000108646F
:101394005389F0438904E4F58AF58CC28DD28C22FA
:10137000438E4053890F758B88758DFFC28FD28E37
:03138000D2AB22CB
:03001B000206AF2B
:1006AF00C0E0C0F0C083C082C0D075D000C000C011
:0D06BF0001C002C003C004C005C006C00792
:1006CC000508C3E5089464748094805003020759AC
:1006DC00750800051B051C050D050E0518E51870A1
:1006EC00020517050CE50C7002050B75800043A084
:1006FC00C053A01F7E007401A81A088005C333CE16
:10070C0033CED8F9FFEF550F602AAB12AA13A914F8
:10071C00851A8275830012021C90112993F4F580BE
:10072C0043A0E053A01FE51A90115493F58043A009
:10073C00C053A01F051AC3E51A9408748094804016
:10074C0003751A0085158043A0A053A01FE509C3AB
:10075C00950A5007E516F4F58080037580FF43A0D9
:10076C008053A01F0509E509C395194003750900BD
:10077C00C3E50C9464E50B94004030750B00750CCC
:10078C0000C28CAF8C7510008F11E511751100F53E
:10079C0010AF8AEF4211E4F58AF58CD28CAE10AF13
:0B07AC0011FC7D0A12027D8E108F11DF
:1007B700D007D006D005D004D003D002D001D00096
:0B07C700D0D0D082D083D0F0D0E03240
:100BA3000721173B3703101704072823595503164A
:020BB300230419
:10001E00E4FEEEC3940874809480500FC297EF13E1
:0B002E0092A3EFC313FFD2970E80E7F0
:0100390022A4
:10135C00C29300C29700D2930012001EAF05120078
:04136C001EC29322E8
:100FD900E4FDC29300C29700D2930012001EE4FF01
:100FE900EFC39408748094805011C297EDC313FD28
:100FF90030A303430580D2970F80E5C29300C297BF
:0C10090000D29700C2A300D2A300AF05E4
:0110150022B8
:101206007F06AE071FEE601F74212FF8E6FE75F00D
:101216000A84C454F0FDEE75F00A84ED25F0FE74E0
:07122600282FF8A60680DB6B
:01122D00229E
:10127B007F06AE071FEE601B74282FF8E6FEC454E2
:10128B000F75F00AA4FDEE540F2DFE74212FF8A656
:03129B000680DFEB
:01129E00222D
:100F5500121206E4FD7F8E12135CAD2A7F801213F8
:100F65005CAD297F8212135CAD287F8412135CADC2
:100F75002C7F8612135CAD2B7F8812135CAD2E7F00
:100F85008A12135CAD2D7F8C12135C7D807F8E02DF
:020F9500135CEB
:1010C2007F81120FD98F2A7F83120FD98F297F85B3
:1010D200120FD98F287F87120FD98F2C7F89120F79
:1010E200D98F2B7F8B120FD98F2E7F8D120FD98F15
:0410F2002D02127B3E
:0C0BB500013400012F0404300000000097
:0413BF00D2A07F0534
:0813C30000AE071FEE70F922D5
:0F13A400D2A11213BFC2A17F051213C3C2A02290
:0C13CB00C2A11213BFD2A17F050213C300
:10000300C2A0A20092A17F051213C31213BFC2A004
:07001300D2A17F050213C317
:081315001213A47FA01210576F
:10131D001213BFA2A19201C2A07F051213C3A20195
:01132D00229D
:051052001213A47F90C1
:02105700AD07E3
:10105900E4FCECC39408748094805024C2A07F05FA
:101069001213C3ED30E704D2A18002C2A17F051299
:1010790013C3D2A0ED25E0FD7F051213C30C80D266
:02108900C2A003
:01108B002242
:10125500E4FCECC394087480948050171213BFED1E
:1012650025E0FD30A103430501C2A07F051213C38C
:051275000C80DFAF0555
:01127A002251
:10132E00432F4012105212131DAF2F1210571213CB
:09133E001DAF341210570213CB4D
:10138300532FBF12105212131DAF2F1210570213F7
:01139300CB8E
:100F0E0012105212131DAF2F12105712131D12135F
:100F1E00A47F9112105712131D121255C200120007
:100F2E00031212558F30C2001200031212558F3168
:100F3E00C2001200031212558F32C20012000312A9
:070F4E0012558F330213CB93
:1012FB008F4D121315AF4D12105712131D120203FF
:0A130B00FF12105712131D0213CB3E
:10129F008F4E121315AF4E12105712131D1213A4A7
:1012AF007FA112105712131D121255EF120249028D
:0212BF0013CB4F
:1011B3008F35121315AF3512105712131DAF391592
:1011C30039EF6013120203FF12105712131D74013B
:0A11D30029F9E43AFA80E60213CB92
:02108C008F3A99
:10108E00121315AF3A12105712131D1213A47FA18B
:10109E0012105712131D121255EF120249153EE58A
:1010AE003E600EC200120003740129F9E43AFA8080
:0410BE00E50213CB69
:040BC1000248D345CE
:0612DF00D2AF7F057E0086
:1012E500EF7803C333CE33CED8F9FFEF1FAC0670CA
:0612F500011E4C70F62200
:02118800AD07B1
:10118A00E4FBEBC39408748094805016C2AFC294F7
:10119A00ED1392941212E1D294D2AFEDC313FD0B68
:0911AA0080E07F057E000212E5E1
:10115C00E4FBEBC3940874809480501DC2AFC2941E
:10116C00EDC313FDD2947F017E001212E53094037F
:0B117C004305801212DF0B80D9AF0585
:011187002245
:1011DD00C202D2947F0C7E001212E5C2947F507E23
:1011ED00001212E5D294C2AF7F0A7E001212E5A260
:0811FD009492021212DFA2021B
:0112050022C6
:100F97001211DD403C7FCC1211887F441211881258
:100FA70011DD402D7FCC1211887FBE1211881211DE
:100FB7005C8F4B12115C8F4AAC4AAD4BEC12014966
:100FC700E4FBFA79C8784012003E1201828E488FFE
:010FD70049D0
:010FD80022F6
:10003E00EC4D6011E8497017ED33EC3304600DE4BC
:10004E00FCFFFEFD22E933E8330470F80201EE12E4
:10005E0001B958046009E4CC2481500628500902E5
:10006E0001F82840030201F5C0E0EB4A7044B98064
:10007E0006D0E0FB0201E4EF4E701CBD8008EBFFE2
:10008E00EAFEE9FD80EBE98DF0A4FEE5F002012722
:10009E00E9CDF9EAFEEBFFEF89F0A4FCE5F0CE899D
:1000AE00F0A42EFFE435F0CD89F0A42DFEE435F05A
:1000BE008067EF4E7005BD80D780C3EF8BF0A4AC88
:1000CE00F0EE8BF0A42CFCE435F0F8EF8AF0A42CC3
:1000DE00E5F038FCE433CB8DF0A42CFCE5F03BF8D6
:1000EE00EE8AF0A42CFCE5F038F8E433CF89F0A4C6
:1000FE002CFCE5F038CF3400CE89F0A42FFFE5F0CC
:10010E003EFEE433C98DF0A42EFEE5F039CD8AF023
:10011E00A42FFFE5F03EFEE43DFD33D0E0FB50079B
:10012E000BBB000F0201F8EC2CFCEF33FFEE33FE9D
:06013E00ED33FD0201D0CB
:1001440075F020800E75F010800575F0087D007E36
:10015400007F003392D530D50312031AEC334010DC
:10016400EF33FFEE33FEED33FDEC33FCD5F0ED223F
:0E017400E5F0247EA2D513CC92E7CDCEFF227B
:10018200EDD2E7CD33EC3392D524814006E4FFFE75
:10019200FDFC22FCE4CFCECDCC24E0501174FF80D4
:1001A200EDC3CC13CCCD13CDCE13CECF13CF047071
:0701B200F030D5DE02031A54
:1001B900E9D2E7C933E833F892D5EDD2E7CD33EC8C
:0701C90033FC5002B2D52205
:1001D000EC30E7100FBF000C0EBE00080DBD000490
:1001E0000BEB6014A2D5EB13FCED92E7FD2274FF3C
:1001F000FCFDFEFF22E480F8A2D574FF13FC7D8095
:03020000E480EFA8
:03000000020BC62A
:0C0BC600787FE4F6D8FD75814E020C0D1E
:10020300BB010689828A83E0225002E722BBFE02F9
:09021300E32289828A83E493222C
:10021C00BB010CE58229F582E5833AF583E0225097
:10022C0006E92582F8E622BBFE06E92582F8E222E1
:0D023C00E58229F582E5833AF583E49322FB
:10024900BB010689828A83F0225002F722BBFE0194
:02025900F3228E
:10025B00F8BB010DE58229F582E5833AF583E8F0D9
:10026B00225006E92582C8F622BBFE05E92582C885
:02027B00F2226D
:10027D00EF8DF0A4A8F0CF8CF0A428CE8DF0A42E95
:02028D00FE224F
:10028F00BC000BBE0029EF8DF084FFADF022E4CC53
:10029F00F875F008EF2FFFEE33FEEC33FCEE9DEC1C
:1002AF00984005FCEE9DFE0FD5F0E9E4CEFD22ED62
:1002BF00F8F5F0EE8420D21CFEADF075F008EF2FAC
:1002CF00FFED33FD4007985006D5F0F222C398FD9D
:0502DF000FD5F0EA223A
:1002E400C2D5EC30E709B2D5E4C39DFDE49CFCEE35
:1002F40030E715B2D5E4C39FFFE49EFE12028FC31C
:10030400E49DFDE49CFC800312028F30D507C3E416
:060314009FFFE49EFE22A3
:0E031A00C3E49FFFE49EFEE49DFDE49CFC22F4
:100BD2000210F6E493A3F8E493A34003F68001F233
:100BE20008DFF48029E493A3F85407240CC8C33324
:100BF200C4540F4420C8834004F456800146F6DFF3
:100C0200E4800B0102040810204080900B2DE47E4A
:100C1200019360BCA3FF543F30E509541FFEE493E7
:100C2200A360010ECF54C025E060A840B8E493A3AE
:100C3200FAE493A3F8E493A3C8C582C8CAC583CAD9
:100C4200F0A3C8C582C8CAC583CADFE9DEE780BE91
:010BC500002F
:00000001FF
