:100BEC00E4F5A07580FF43A08053A01FF58043A0BF
:100BFC00A053A01FF58043A0C053A01FF58043A0B5
:100C0C00E053A01F120EB7120E72120EE2D2AF12E8
:040C1C0003E180FE72
:100EA700070B0F13060A0E1205090D1104080C1083
:06083A0001360001370049
:10078700D2B2D2B3C2C4C2C2C2B5C2B4E5B0F45485
:100797000F606720B3047F03800830B20302083973
:1007A7007F02C2B2C2B3D2C4D2C2D2B5D2B420C4BD
:1007B70004E4FE801320C2047E01800C20B5047E71
:1007C70002800520B46C7E03EFF46020EEF4601C19
:1007D700EF25E025E024A7F582E4340EF583E582D2
:1007E7002EF582E43583F583E493F536C3E5379434
:1007F700FA74809480503B053722E536602FAF3777
:100807007E00D3EF94FA748094805021C3EF9464F0
:100817007480948050047537FF22C3EF94C8EE6448
:1008270080948050047537FE227537FD22E4F53633
:02083700F53793
:01083900229C
:080EEC007F3B7E5ADEFEDFFCB5
:010EF40022DB
:080EF5007FC37E8ADEFEDFFCF4
:010EFD0022D2
:1003E100751C01E4F51D120B01120003120E961289
:1003F1000EEC120CAF90001B7411F0900018F090ED
:100401000048E0C3940A7480948040F3E4F012073A
:1004110087C3900004E09414900003E09400402B03
:10042100E4F0A3F0AF1D051DEF600E146010146021
:10043100121460148000751D01120E2E800D120C15
:10044100AF8008120B01800312096EAF367E00EFF8
:10045100640D7018E53764027012051CC3E51C9425
:1004610007748094804021751C01801CEF640C4E40
:100471007016E53764027010151CD3E51C940174E5
:100481008094805003751C06E51C14FFF874010864
:100491008002C333D8FC90000BF075F008E51CA472
:1004A100240EF582E5F03400AF82F52A8F2BE51694
:1004B10075F00A84900016F0E51675F00A84A3E53C
:1004C100F0F0E51775F00A84900019F0E51775F062
:1004D1000A84A3E5F0F0E51875F00A8490001CF099
:1004E100E51875F00A84A3E5F0F0E52275F064845F
:1004F100A3F0E52275F00A8475F00A84A3E5F0F013
:10050100E52275F00A84A3E5F0F0E52375F0648433
:10051100900023F0E52375F00A8475F00A84A3E5C1
:10052100F0F0E52375F00A84A3E5F0F0E52475F019
:100531006484A3F0E52475F00A8475F00A84A3E5C8
:10054100F0F0E52475F00A84A3E5F0F0E52575F0F7
:10055100648490002BF0E52575F00A8475F00A8417
:10056100A3E5F0F0E52575F00A84A3E5F0F0E526B2
:1005710075F06484A3F0E52675F00A8475F00A84A9
:10058100A3E5F0F0E52675F00A84A3E5F0F0AE38B6
:10059100AF397C007D6412022E900033EFF0AE384B
:1005A100AF397C007D0A12022E7C007D0A12022ED8
:1005B100A3EDF0AE38AF397C007D0A12022EA3ED17
:1005C100F0900008E0FAA3E0FB7C037DE8FFAE02B7
:1005D10012022E900039EFF07C007D64AF03AE0271
:1005E10012022E7C007D0A12022EA3EDF09000086B
:1005F100A3E07C007D0AFFAE0212022E7C007D0A80
:1006010012022E90003BEDF07C007D0AAF03AE029A
:1006110012022EA3EDF0E4A3F0AE3AAF3B7C277DAE
:100621001012022E900042EFF0AE3AAF3B7C037DF8
:10063100E812022E7C007D0A12022EA3EDF0AE3AE2
:10064100AF3B7C007D6412022E7C007D0A12022EDB
:10065100ED2420A3F0AE3AAF3B7C007D0A12022EBE
:06066100A3EDF00204000D
:08084000C101C10002380000F3
:100D8600D290120DA6C290120DA6D290120DA6C236
:100D960090120DA6D290120DA6C290120DA6D29058
:060DA60000007F24DFFEC7
:010DAC002224
:0A0EE200E4F5D875D90175DA112284
:03003B00020E852D
:100E8500C2DE30D802C2D830DF04C2DFD200C201D0
:010E9500322A
:10096E00200170E5394538604730000AC20074FF37
:10097E00F538F5398040AFFA7538008F39E539759D
:10098E003900F538AFEAEF423974E42539F5397498
:10099E00723538F538FCAD39E41201497B967A434D
:1009AE00798B783C12003E1201828E388F39800688
:1009BE0075380075390175E91C75F98DC2DFC2AF46
:1009CE00D2DE120D86C290120DA6120D86C290D2E4
:0809DE00AFD201AE38AF39229F
:100C20003F065B4F666D7D077F6F777C395E79711C
:100C30000040761E7038375C733E783D6750376EE3
:100C4000BF86DBCFE6EDFD87FFEF4601020408100B
:030C5000204080C1
:10084800410047006038000E1010101010101010F2
:10085800190110101010101019021010101010109B
:100868001903101010101010190410101010101087
:100878001905101010101010190610101010101073
:10088800022A000E410007FF41000B004100000052
:100898004100010A4100460A41000A00410048009F
:1008A80041000200420005000042000C0000420026
:0F08B800030000420008000001270A0228006424
:100EB7005389F0438904E4F58AF58CC28DD28C22DC
:100E7200438E4053890F758B50758DFBC28FD28E76
:030E8200D2AB22CE
:03001B0002066773
:10066700C0E0C083C082C0D075D000C005C006C03E
:01067700077B
:10067800900001E0FF900000E0D39F500990000B2C
:10068800E0F4F58080037580FF43A08053A01F909D
:100698000046E0FF900000E004F0C39F4002E4F051
:1006A8000527C3E527940A748094805003020778CD
:1006B800752700900048E004F0900004E004F07012
:1006C80006900003E004F0900002E004F0900006B9
:1006D800E004F07006900005E004F090000DE004DE
:1006E800F0700690000CE004F075800043A0C05341
:1006F800A01F900047E0FF252BF582E4352AF583FB
:10070800E0900C2093F4F58043A0E053A01FEF90F5
:100718000C4B93FF900007E0FEEF5EF58043A0C00E
:1007280053A01F900047E004F0C39408748094809D
:100738004002E4F00529E52970020528C39464E520
:10074800289400401F752800752900C28CAF8CEFD3
:10075800FFAD8AED900008CFF0A3EFF0758A007521
:100768008C00D28C90000AE0F58043A0A053A01F13
:0F077800D007D006D005D0D0D082D083D0E032C9
:060C53008B108A118912CA
:100C5900120283FFAEF0AB13AA14A915120283FD89
:100C6900AB10AA11A912E5F08DF01202E6AB13AA96
:090C790014A915EE8FF00202E649
:1009E6009000021202AEFFAEF0120283FDACF0D30D
:1009F6009FEC9E4006AE04AF0580099000021202ED
:100A0600AEFFAEF09000041202AEFDD3EF9DEE9560
:100A1600F05001229000021202AEFFAEF0120283E5
:100A2600FDACF0C39FEC9E5006AE04AF0580099066
:100A360000021202AEFFAEF09000041202AEFDD329
:100A4600EF9DEE95F0400280099000041202AEFF81
:020A5600AEF000
:010A5800227B
:040A59008C088D096F
:100A5D00E4F50DF50CF50BF50AF50EF50FC3E50FE5
:100A6D009509E50E95085033E50F25E0FFE50E33AA
:100A7D008F82F5831202AEFFAEF0E4FCFDE50D2F83
:100A8D00F50DE50C3EF50CED350BF50BEC350AF5DA
:100A9D000A050FE50F70C6050E80C2AE08AF09AB93
:100AAD0007AA06E4F9F8AF0DAE0CAD0BAC0A0203C4
:010ABD0041F7
:0A08C7000316173B37031923595598
:10001E00E4FEEEC3940874809480500FC297EF13E1
:0B002E0092A3EFC313FFD2970E80E7F0
:0100390022A4
:100E5E00C29300C29700D2930012001EAF0512007B
:040E6E001EC29322EB
:100B4300E4FDC29300C29700D2930012001EE4FF9B
:100B5300EFC39408748094805011C297EDC313FDC2
:100B630030A303430580D2970F80E5C29300C29759
:0C0B730000D29700C2A300D2A300AF057F
:010B7F002253
:100C8200E4FFEFC3940374809480502074162FF80D
:100C9200E6FE75F00A84C454F0FDEE75F00A84EDA8
:0C0CA20025F0FE74192FF8A6060F80D66E
:010CAE002223
:100D5D00E4FFEFC3940374809480501C74192FF832
:100D6D00E6FEC4540F75F00AA4FDEE540F2DFE746B
:080D7D00162FF8A6060F80DA1C
:010D8500224B
:10000300120C82AD197F84120E5EAD1A7F82120E1E
:080013005EAD1B7F80020E5E52
:100E2E007F85120B438F197F83120B438F1A7F819D
:080E3E00120B438F1B020D5D36
:0C08D100012104012600042200000000A8
:040E1400D2A07F05E4
:100E1800000000000000000000000000000000AE1C
:060E2800071FEE70EB2233
:0F0EC700D2A1120E14C2A17F05120E18C2A022D2
:0C0ED600C2A1120E14D2A17F05020E185A
:020BB700AD0788
:100BB900E4FCECC39408748094805024C2A07F059F
:100BC900120E18ED30E704D2A18002C2A17F0512EE
:100BD9000E18D2A0ED25E0FD7F05120E180C80D26B
:020BE900C2A0A8
:010BEB0022E7
:050CDC00E4FF120E46CA
:100CE100E4FCECC39408748094805017120E14ED48
:100CF10025E0FD30A103430501C2A07F05120E18B6
:050D01000C80DFAF05CE
:010D060022CA
:100DD400120EC77F90120BB7120DE4AF21120BB79E
:100DE400120E14A2A1E433FDC2A07F05120E18AFA7
:010DF40005F9
:010DF50022DB
:100E4600C2A0EF24FF92A17F05120E18120E14C243
:080E5600A0D2A17F05020E18D5
:100B80008F2C120EC77FA0120BB7120DE4AF2C12E0
:100B90000BB7120DE4AF301530EF6013120203FFF4
:100BA000120BB7120DE4740129F9E43AFA80E61247
:070BB0000ED67F05020E18AE
:020ABE008F3176
:100AC000120EC77FA0120BB7120DE4AF31120BB795
:100AD000120DE4120EC77FA1120BB7120DE4120C17
:100AE000E1EF12021C1535E535600EE4FF120E46EB
:100AF000740129F9E43AFA80E57F01120E46020EEC
:010B0000D61E
:100E9600432140120DD4AF26120BB7120DE4020EF9
:010EA600D675
:090EFE005321BF120DD4020ED6DF
:100CAF00120DD4120EC77F91120BB7120DE4120C56
:100CBF00E1120CDC8F22120CDC8F23120CDC8F2440
:0D0CCF00120CDC8F257F01120E46020ED69E
:0408DD00023A0000DB
:040DF6007F057E00F7
:100DFA00EF1FAA0670011E4A600FE4FDEDC3940CB2
:090E0A007480948050EA0D80F31D
:010E130022BC
:020D0700A9073A
:100D0900E4FBEBC39408748094805016C2AFC2947C
:100D1900E9139294120DF6D294E9C313F9D2AF0BE9
:090D290080E07F057E00020DFA56
:100DAD00E4FBEBC39408748094805018C2AFC294D6
:100DBD00ECC313FCD294309403430480120DF6D28D
:060DCD00AF0B80DEAF0455
:010DD30022FD
:100D3200C202D2947F0C7E00120DFAC2947F507EC2
:100D420000120DFAD294C2AF7F0A7E00120DFAA2EF
:0A0D5200949202D2AF120DF6A20235
:010D5C002274
:100B0100120D327FCC120D077F44120D07120D32E8
:100B11007FCC120D077FBE120D07120DAD751E00A1
:100B21008F1F120DADEF451EFCE51FFDE4120149BB
:100B3100E4FBFA79C8784012003E1201828E3A8FA6
:010B41003B78
:010B42002290
:10003E00EC4D6011E8497017ED33EC3304600DE4BC
:10004E00FCFFFEFD22E933E8330470F80201EE12E4
:10005E0001B958046009E4CC2481500628500902E5
:10006E0001F82840030201F5C0E0EB4A7044B98064
:10007E0006D0E0FB0201E4EF4E701CBD8008EBFFE2
:10008E00EAFEE9FD80EBE98DF0A4FEE5F002012722
:10009E00E9CDF9EAFEEBFFEF89F0A4FCE5F0CE899D
:1000AE00F0A42EFFE435F0CD89F0A42DFEE435F05A
:1000BE008067EF4E7005BD80D780C3EF8BF0A4AC88
:1000CE00F0EE8BF0A42CFCE435F0F8EF8AF0A42CC3
:1000DE00E5F038FCE433CB8DF0A42CFCE5F03BF8D6
:1000EE00EE8AF0A42CFCE5F038F8E433CF89F0A4C6
:1000FE002CFCE5F038CF3400CE89F0A42FFFE5F0CC
:10010E003EFEE433C98DF0A42EFEE5F039CD8AF023
:10011E00A42FFFE5F03EFEE43DFD33D0E0FB50079B
:10012E000BBB000F0201F8EC2CFCEF33FFEE33FE9D
:06013E00ED33FD0201D0CB
:1001440075F020800E75F010800575F0087D007E36
:10015400007F003392D530D5031203D3EC33401023
:10016400EF33FFEE33FEED33FDEC33FCD5F0ED223F
:0E017400E5F0247EA2D513CC92E7CDCEFF227B
:10018200EDD2E7CD33EC3392D524814006E4FFFE75
:10019200FDFC22FCE4CFCECDCC24E0501174FF80D4
:1001A200EDC3CC13CCCD13CDCE13CECF13CF047071
:0701B200F030D5DE0203D39B
:1001B900E9D2E7C933E833F892D5EDD2E7CD33EC8C
:0701C90033FC5002B2D52205
:1001D000EC30E7100FBF000C0EBE00080DBD000490
:1001E0000BEB6014A2D5EB13FCED92E7FD2274FF3C
:1001F000FCFDFEFF22E480F8A2D574FF13FC7D8095
:03020000E480EFA8
:030000000208E211
:0C08E200787FE4F6D8FD75813B020929FF
:10020300BB010689828A83E0225002E722BBFE02F9
:09021300E32289828A83E493222C
:10021C00BB010689828A83F0225002F722BBFE01C1
:02022C00F322BB
:10022E00BC000BBE0029EF8DF084FFADF022E4CCB4
:10023E00F875F008EF2FFFEE33FEEC33FCEE9DEC7D
:10024E00984005FCEE9DFE0FD5F0E9E4CEFD22EDC3
:10025E00F8F5F0EE8420D21CFEADF075F008EF2F0D
:10026E00FFED33FD4007985006D5F0F222C398FDFE
:05027E000FD5F0EA229B
:10028300BB010A89828A83E0F5F0A3E02250068746
:10029300F009E71922BBFE07E3F5F009E319228908
:0B02A300828A83E493F5F0740193223B
:1002AE00BB0110E58229F582E5833AF583E0F5F08E
:1002BE00A3E0225009E92582F886F008E622BBFE6B
:1002CE000AE92582F8E2F5F008E222E5832AF583B1
:0802DE00E993F5F0A3E9932276
:1002E600BB010A89828A83F0E5F0A3F0225006F763
:0F02F60009A7F01922BBFE06F3E5F009F3192260
:1003050075F008758200EF2FFFEE33FECD33CDCCAF
:1003150033CCC58233C5829BED9AEC99E582984032
:100325000CF582EE9BFEED9AFDEC99FC0FD5F0D60F
:10033500E4CEFBE4CDFAE4CCF9A88222B800C1B939
:100345000059BA002DEC8BF084CFCECDFCE5F0CB77
:10035500F97818EF2FFFEE33FEED33FDEC33FCEBB0
:1003650033FB10D703994004EB99FB0FD8E5E4F96B
:10037500FA227818EF2FFFEE33FEED33FDEC33FC58
:10038500C933C910D7059BE99A4007EC9BFCE99A4C
:10039500F90FD8E0E4C9FAE4CCFB2275F010EF2F91
:1003A500FFEE33FEED33FDCC33CCC833C810D70791
:1003B5009BEC9AE899400AED9BFDEC9AFCE899F8CC
:0E03C5000FD5F0DAE4CDFBE4CCFAE4C8F9225F
:0E03D300C3E49FFFE49EFEE49DFDE49CFC223B
:1008EE00020BECE493A3F8E493A34003F68001F229
:1008FE0008DFF48029E493A3F85407240CC8C3330B
:10090E00C4540F4420C8834004F456800146F6DFD9
:10091E00E4800B010204081020408090083AE47E27
:10092E00019360BCA3FF543F30E509541FFEE493CE
:10093E00A360010ECF54C025E060A840B8E493A395
:10094E00FAE493A3F8E493A3C8C582C8CAC583CAC0
:10095E00F0A3C8C582C8CAC583CADFE9DEE780BE78
:0108E1000016
:00000001FF
